:1000000017C026C025C024C023C04AC021C020C0BC
:100010001FC01EC01DC01CC01BC01AC019C00000DC
:10002000000036000202020202020102040810204F
:1000300011241FBECFE5D2E0DEBFCDBF20E0A0E699
:10004000B0E001C01D92AF36B207E1F773D0E0C057
:10005000D7CF811105C08FB7F894C3988FBF08958B
:100060008FB7F894C39AFACF90E0FC01E65DFF4F9A
:100070002491FC01EC5DFF4FE491EE2371F0F0E080
:10008000EE0FFF1FE25EFF4FA591B491EC91E223CA
:1000900081E090E021F480E0089580E090E0089510
:1000A0001F920F920FB60F9211242F933F938F93AD
:1000B0009F93AF93BF938091650090916600A0914C
:1000C0006700B09168003091640026E0230F2D375F
:1000D00068F129E8230F0396A11DB11D2093640048
:1000E0008093650090936600A0936700B0936800CA
:1000F0008091600090916100A0916200B0916300D6
:100100000196A11DB11D8093600090936100A093A2
:100110006200B0936300BF91AF919F918F913F9127
:100120002F910F900FBE0F901F9018950296A11D52
:10013000B11DD4CF83E08ABD83BF789489B7826034
:1001400089BF80E48CBD8FEF8DBD87EC80BF86E8D2
:1001500086B98FB7F894BB9A8FBF81E07ADF8FB7EB
:10016000F894BC98C49A8FBF84E07EDF21E0892B8D
:1001700009F420E020936D0020936E0084E074DF8A
:1001800021E0892B09F420E080916E002813209350
:100190006E0080916D002817D1F020936D0080E0F3
:1001A00058DF2FB7F8948091650090916600A09178
:1001B0006700B09168002FBFC296A11DB11D80934A
:1001C000690090936A00A0936B00B0936C002FB706
:1001D000F8948091650090916600A0916700B091BD
:1001E00068002FBF4091690050916A0060916B00D8
:1001F00070916C0084179507A607B70708F4BECF67
:1002000083E032DF892B09F0B9CF81E022DFB6CF5E
:04021000F894FFCF90
:00000001FF
